:10000000B8C00000D1C00000CFC00000CDC00000CB
:10001000CBC00000C9C00000C7C00000C5C00000C0
:10002000C3C00000C1C00000BFC0000016C5000072
:10003000BBC00000B9C00000B7C00000B5C00000E0
:10004000B3C00000B1C00000AFC00000ADC00000F0
:10005000ABC00000A9C00000A7C00000A5C0000000
:10006000A3C00000A1C000009FC000009DC0000010
:100070009BC0000099C0000097C0000095C0000020
:1000800093C0000091C000008FC000008DC0000030
:100090008BC0000089C0000005010905A101150001
:1000A0002501350045017501951005091901291033
:1000B000810205012507463B017504950165140978
:1000C00039814265009501810126FF0046FF000944
:1000D000300931093209357508950481020600FF9F
:1000E0000920950181020A212695089102C012017A
:1000F0000002000000400D0F92000001010200010B
:100100000902290001010080FA090400000203002D
:1001100000000921110100012256000705020340D9
:10012000000507058103400005040309041C03487A
:10013000004F0052004900200043004F002E002CC9
:10014000004C00540044002E000000240350004FD7
:10015000004B004B0045004E00200043004F004E76
:1001600000540052004F004C004C0045005200006B
:10017000000011241FBECFEFD2E0DEBFCDBF11E0E3
:10018000A0E0B1E0E6ECFEE002C005900D92A23DD9
:10019000B107D9F711E0A2EDB1E001C01D92A43F73
:1001A000B107E1F7D5D18DC62BCF089508950895F5
:1001B000CF93DF93DC0198E0FD01292F11922A955E
:1001C000E9F780E813968C93139714968C93149701
:1001D00015968C93159716968C93169712969C935A
:1001E00012978091D3019091D401181619066CF4DE
:1001F000EFEDF1E088E001900D928150E1F7809100
:10020000D3019091D401019734C18091D201882308
:1002100021F0813009F023C130C18091DD0190913E
:10022000DE018F5F9F4F61F485E090E09093DE01E7
:100230008093DD0184E490E09093010180930001BC
:100240008091DD019091DE0163E070E028D6FC0131
:10025000EE5FFE4FE081EB3009F49DC0EC3058F5C5
:10026000E53009F47FC0E63098F4E23009F44EC07E
:10027000E33038F4EE2309F45AC0E13009F0BDC090
:1002800049C0E33009F44BC0E43009F0B6C065C0A2
:10029000E83009F476C0E93038F4E63009F467C094
:1002A000E73009F0AAC068C0E93009F451C0EA306B
:1002B00009F0A3C06BC0E13109F48BC0E23198F4BE
:1002C000EE3009F477C0EF3038F4EC3009F468C050
:1002D000ED3009F092C069C0EF3009F470C0E03130
:1002E00009F08BC071C0E531F9F0E63138F4E23144
:1002F00009F474C0E43109F080C075C0E73129F118
:10030000E731C8F0E83109F078C01AC013961C92A2
:10031000139773C08FEF14968C9314976EC08FEF62
:1003200013968C93139769C013961C921397149687
:100330001C92149762C08FEF13968C931397F7CF8C
:100340008FEF14968C93149703C014961C921497F5
:100350008D919C91119780624DC08D919C911197C8
:10036000886048C08D919C911197816043C08D91A8
:100370009C91119784603EC08D919C9111978260F1
:1003800039C08D919C911197806134C08D919C9161
:10039000119780642FC08D919C91119780682AC01D
:1003A0008D919C911197916025C08D919C91119791
:1003B000926020C08D919C91119794601BC08D918B
:1003C0009C911197986016C08D919C9111978063B4
:1003D00011C08D919C91119790610CC08D919C9151
:1003E0001197906207C014961C9214978D919C915E
:1003F00011978A6011969C938E932091DB01309126
:10040000DC012F5F3F4F3093DC012093DB01C09173
:10041000DD01D091DE01CE0163E070E040D5FC014A
:10042000EE5FFE4F8181928182179307C0F49E0197
:100430002F5F3F4F3093DE012093DD011092DC01EE
:100440001092DB01809100019091010182179307C6
:1004500034F48FEF9FEF9093DE018093DD01CFEDB9
:10046000D1E0FD0188E0019009928150E1F782E03E
:1004700090E09093D4018093D301DF91CF910895C0
:10048000FF920F931F93DF93CF93CDB7DEB72897DB
:100490000FB6F894DEBF0FBECDBF8091EB01843064
:1004A000B9F582E08093E9008091E80082FF14C0F2
:1004B0008091E80085FF0BC08E010F5F1F4FC801C0
:1004C00067E070E040E050E051D18823C1F78091AF
:1004D000E8008B778093E80081E08093E9008091C9
:1004E000E80080FF15C08E010F5F1F4FC80160DE5E
:1004F000F02E012F8F2D902F68E070E040E050E04B
:1005000087D18823B9F78091E8008E778093E8003F
:1005100028960FB6F894DEBF0FBECDBFCF91DF9106
:100520001F910F91FF90089582E060EC42E3C2D1E9
:1005300081E061EC42E3BEC184B7877F84BF88E17C
:100540000FB6F89480936000109260000FBE76C2E0
:10055000F3DF789495DF8ED4FDCFDA019330B1F0DC
:10056000943028F4913041F0923079F50AC09132FC
:1005700011F1923251F524C0EEEEF0E022E130E0CC
:1005800028C0E0E0F1E029E230E023C0813049F00A
:10059000813018F08230C9F40AC0E9E2F1E08491B8
:1005A00003C0EDE2F1E08491282F30E012C0EBE4CB
:1005B000F1E08491F9CFE2E1F1E029E030E009C017
:1005C000E8E9F0E026E530E004C0E0E0F0E020E01B
:1005D00030E0ED93FC93C90108959C014091F20134
:1005E0005091F3014617570718F4F90190E03DC008
:1005F0006115710511F0AB01F8CF8091E8008E779D
:100600008093E80040E050E0F0CF8091EB01882338
:1006100009F441C0853009F440C08091E80083FDB1
:100620003EC08091E80082FD30C08091E80080FFEC
:100630001CC08091F200282F30E007C08191809388
:10064000F100415050402F5F3F4F4115510519F0C7
:100650002034310598F390E02034310509F491E01D
:100660008091E8008E778093E8004115510569F686
:10067000992359F60AC08091EB01882361F08530F7
:1006800061F08091E80083FD0AC08091E80082FF5C
:10069000F2CF80E0089582E0089583E0089581E03C
:1006A00008959C014091F2015091F30146175707BC
:1006B00018F4F90190E03EC06115710511F0AB012D
:1006C000F8CF8091E8008E778093E80040E050E01A
:1006D000F0CF8091EB01882309F442C0853009F402
:1006E00041C08091E80083FD3FC08091E80082FD19
:1006F00031C08091E80080FF1DC08091F200282F5A
:1007000030E008C084918093F10031964150504010
:100710002F5F3F4F4115510519F02034310590F3FB
:1007200090E02034310509F491E08091E8008E7763
:100730008093E8004115510561F6992351F60AC0EE
:100740008091EB01882361F0853061F08091E800B1
:1007500083FD0AC08091E80082FFF2CF80E0089517
:1007600082E0089583E0089581E00895BF92CF92DA
:10077000DF92EF92FF920F931F93CF93DF93182F87
:10078000092F7B016A01EFD0B82E8823B1F5812FA4
:10079000902F9C01E901C114D10439F0F601808148
:1007A0009181E81AF90AC80FD91F00E010E022C0B1
:1007B0008091E80085FD16C08091E8008B778093DA
:1007C000E80058D3C114D10449F0F6018081918129
:1007D000800F911F9183808385E010C0C4D088234F
:1007E00049F00CC08091F10089930894E108F10868
:1007F0000F5F1F4FE114F104D9F68B2DDF91CF91DC
:100800001F910F91FF90EF90DF90CF90BF900895D0
:10081000BF92CF92DF92EF92FF920F931F93CF93ED
:10082000DF93182F092F7B016A019DD0B82E8823F2
:10083000B1F5812F902F9C01E901C114D10439F049
:10084000F60180819181E81AF90AC80FD91F00E0EA
:1008500010E022C08091E80085FD16C08091E8007C
:100860008E778093E80006D3C114D10449F0F601D5
:1008700080819181800F911F9183808385E010C0DA
:1008800072D0882349F00CC089918093F1000894BC
:10089000E108F1080F5F1F4FE114F104D9F68B2D29
:1008A000DF91CF911F910F91FF90EF90DF90CF904C
:1008B000BF900895382F282F2EC0822F8F708093DD
:1008C000E900231721F4762F942F50E006C0709191
:1008D000EC009091ED005091F00091FF1BC08091D1
:1008E000EB008E7F8093EB008091ED008D7F8093F5
:1008F000ED008091EB0081608093EB007093EC0041
:100900009093ED005093F0008091EE0087FD02C0BF
:1009100080E008952F5F253080F23F703093E9002A
:1009200081E008958091EC0188239CF404C08091BB
:10093000EB018823B9F08091E80082FFF8CF809125
:10094000E8008B778093E80008958091EB0188237D
:1009500049F08091E80080FFF8CF8091E8008E7721
:100960008093E80008954091E4005091E50024E66A
:100970008091EC0080FF24C08091E80080FD1EC0C3
:100980008091EB01882311F482E00895853011F401
:1009900083E008958091EB0085FF02C081E0089517
:1009A0008091E4009091E5008417950709F32223D4
:1009B00011F484E008952150AC01DACF80E008956D
:1009C0008091E80082FFDCCFF9CF41D043D0809105
:1009D000D8008F778093D8008091D800806880936A
:1009E000D8008091D8008F7D8093D80084E089BDA5
:1009F00086E089BD09B400FEFDCF1092EB01109294
:100A0000E7011092E9011092E80180E060E042E322
:100A100051DF8091E1008E7F8093E1008091E200C0
:100A200081608093E2008091E20088608093E20020
:100A30008091E0008E7F8093E0000895E3E6F0E08F
:100A400080818E7F808381E08093EA01BECF109207
:100A5000E20008951092E10008951F920F920FB6E0
:100A60000F9211242F933F934F935F936F937F9334
:100A70008F939F93AF93BF93EF93FF938091E10088
:100A800082FF0AC08091E20082FF06C08091E100EF
:100A90008B7F8093E100EDD18091E10080FF17C052
:100AA0008091E20080FF13C08091E2008E7F8093EE
:100AB000E2008091E20080618093E2008091D800A2
:100AC00080628093D80019BC1092EB016FDB80919B
:100AD000E10084FF2FC08091E20084FF2BC084E0FE
:100AE00089BD86E089BD09B400FEFDCF8091D800A4
:100AF0008F7D8093D8008091E1008F7E8093E1000C
:100B00008091E2008F7E8093E2008091E20081601C
:100B10008093E2008091E701882311F084E007C010
:100B20008091E30087FD02C081E001C083E08093F3
:100B3000EB013BDB8091E10083FF22C08091E2006A
:100B400083FF1EC08091E100877F8093E10082E0F7
:100B50008093EB011092E7018091E1008E7F8093FA
:100B6000E1008091E2008E7F8093E2008091E200BC
:100B700080618093E20080E060E042E39BDE79D117
:100B8000FF91EF91BF91AF919F918F917F916F9165
:100B90005F914F913F912F910F900FBE0F901F903B
:100BA00018951F93DF93CF93CDB7DEB7AC970FB6F1
:100BB000F894DEBF0FBECDBFECEEF1E08091F10006
:100BC000819321E0E43FF207C9F7F1DA8091E80070
:100BD00083FF37C18091EC013091ED01353009F48C
:100BE00087C0363040F43130C9F1313070F03330E5
:100BF00009F027C133C0383009F4F5C0393009F4A1
:100C000004C1363009F01DC196C0803821F0823809
:100C100009F017C108C09091E8018091E90188238B
:100C200099F0926011C08091F0018F708093E9007B
:100C30008091EB0090E025E0969587952A95E1F765
:100C4000982F91701092E9008091E800877F80933F
:100C5000E8009093F1001092F100D0C0882319F0C1
:100C6000823009F0EEC090E08F719070009721F013
:100C7000029709F0E6C00CC08091EE01813009F0C6
:100C8000E0C01092E901333069F58093E9012AC090
:100C90008091EE01882331F52091F0012F7009F445
:100CA000D0C02093E9008091EB0080FF1BC033305F
:100CB00021F48091EB00806213C08091EB00806191
:100CC0008093EB0081E090E002C0880F991F2A9585
:100CD000E2F78093EA001092EA008091EB008860CE
:100CE0008093EB001092E9008091E800877F89C033
:100CF000882309F0A6C01091EE011F778091E300D0
:100D00008078812B8093E3008091E800877F809337
:100D1000E80008DE8091E80080FFFCCF8091E300CE
:100D200080688093E300112311F482E001C083E026
:100D30008093EB0186C08058823008F082C0809199
:100D4000EE019091EF0123E08C3D920709F033C052
:100D500083E08C838AE28B837FB7F894DE0115965B
:100D60006EE040E050E011E2E62FF0E01093570013
:100D7000849140FF03C082958F706F5F8F70282F22
:100D800030E08A3018F0C901C79602C0C901C09688
:100D90008D939D934F5F5F4F4431510529F77FBF7E
:100DA0008091E800877F8093E800CE0103966AE295
:100DB00070E013DC12C06091F001AE014F5F5F4F35
:100DC000CCDBBC01009709F43CC08091E800877F30
:100DD0008093E80089819A8164DC8091E8008B77B8
:100DE0008093E8002EC0803861F58091E800877F0D
:100DF0008093E8008091E7018093F1008091E80002
:100E00008E778093E8008EDD1CC08823D1F490910A
:100E1000EE019230B0F48091E800877F8093E80083
:100E20009093E7017FDD8091E701882331F4809181
:100E3000E30087FD02C081E001C084E08093EB0104
:100E400073DB8091E80083FF0AC08091E800877F10
:100E50008093E8008091EB0080628093EB00AC9679
:100E60000FB6F894DEBF0FBECDBFCF91DF911F91BB
:100E7000089508951F938091EB01882371F01091DC
:100E8000E9008091EC001092E9008091E80083FF76
:100E900001C087DE1F701093E9001F910895552748
:100EA000002480FF02C0060E571F660F771F6115D2
:100EB000710521F096958795009799F7952F802DCC
:060EC0000895F894FFCF35
:100EC6000500131E00101E00062800072800110149
:100ED60000131E00041E0006640016010013010024
:100EE600061400130100069600130100151E0013D8
:100EF6000F00060500132800060A001396000605D3
:100F060000134600060500133200060500134600CE
:100F1600010500130500060500136400060500130D
:100F260046000605001305000114001302000D0516
:100F360000130A0003D2000396000705000396007B
:100F460002960007050002960003960007050003B7
:100F56009600029600070500029600039600070514
:100F6600000396000296000705000296000396000D
:100F7600070500039600130F00060500132003065D
:100F860005001396000705001314000D0500130550
:020F9600000059
:00000001FF
